:03000000021A9D44
:0C1A9D00787FE4F6D8FD758120021AE481
:10002E0000000000000000000000000000000000C2
:10003E0000000000000000000000000000000000B2
:10004E0000000000000000000000000000000000A2
:10005E000000000000000000000000000000207002
:10006E0070F0E0E0C00000000000000000000000A2
:10007E000000000000000000000000000000000072
:10008E000000000000000000C0E0E0E0E0E0E0F072
:10009E00F038383C1C9CCCCCC0C0000000000000E6
:1000AE000000000000000000000000000000000042
:1000BE000000000000000000000000C0F0FFFFFF85
:1000CE00FFF3F8FCFCFF7F3F3B3900C0C0C0C0E02F
:1000DE0070783C1E1F0F0F070700808080C0C0C0C5
:1000EE00C000000000000000181C1E1F0F8F87C7E5
:1000FE00E3E3FFFFFFFFFFBE9E1E0E0E0007FFFF96
:10010E00FFFFF83C1C1E0E0E1FFFFFFFFF03030137
:10011E000100000000000000F8FCFEDE8F0F070754
:10012E00030301FFFFFFFFFF0103070F1F1EFCFF6D
:10013E00FFFF0F000000000000001FFFFFFFFE008A
:10014E000000000000000000000001030301020295
:10015E00020606060F0F0F0F030000000000030338
:10016E000301000000000000000000FEFFFFFF0F73
:10017E000000000000000000000000000000000071
:10018E000000000000000000000000000000000061
:10019E000000000000000000000000000303030147
:1001AE000000000000000000000000000000000041
:1001BE000000000000000000000000000000000031
:1001CE000000000000000000000000000000000021
:1001DE000000000000000000000000000000000011
:1001EE000000000000000000000000000000000001
:1001FE0000000000000000000000000000000000F1
:10020E0000000000000000000000000000000000E0
:10021E0000000000003070F0F0F0E0000000000080
:10022E000000000080FEFEFEFC3870E0E0C0808022
:10023E0080800000000000000000000000000000B0
:10024E0000000000000080FFFFFFFFFF0000000025
:10025E000000000000FFFFFFFFFFF0F0783D3F1FA2
:10026E000F0F0F070000000000000000000000004C
:10027E00000C0C0E0E0F0F87FFFFFFFF000000009B
:10028E0000303C7C3E3EFFFFFFFF070100000000F8
:10029E0000000000000080808000000000000000D0
:1002AE000000000000038FFFFFFFFF7F7F0C0000A8
:1002BE0000000000000000FFFFFFFFF880000000BC
:1002CE00000000000080C0FFFFFFF80000000000EB
:1002DE000000001E1E1E1F0F07030100000000007D
:1002EE0000000000000000000001030707070F0FC9
:1002FE000E0E0F0F0F0F0F0F070707010000000064
:10030E0000000000000000000000000000000000DF
:10031E0000000000000000000000000000000000CF
:10032E0000000000000000000000000000000000BF
:10033E0000000000000000000000000000000000AF
:10034E00000000000000000000000000000000009F
:10035E000000000000000000000008F8F00080809F
:10036E00808000000000000000000000000000007F
:10037E000000000080E070381C0F07030100000031
:10038E00000000000000000000000000000000005F
:10039E0000000F1F18303030202020203030301059
:1003AE00181800000000000000000000000000000F
:1003BE00000000000000000000000000000000002F
:1003CE00000000000000000000000000000000001F
:1003DE00000000000000000000000000000000000F
:1003EE0000000000000000000000000002020202F7
:1003FE0002020202020202000000000000000000E1
:10040E0000000000000004040404040404060602B4
:10041E000206060404040CF8F000000000000000C0
:10042E00000000000000000000000000000080C07E
:10043E00E070381C0F0300000000000000000000F8
:10044E000000000000000000000303030101000093
:10045E00000000000000000000000000000000008E
:10046E00000000000000000000000000000000007E
:10047E00000000000000000000000000000000006E
:10048E00000000101010181818181830F0E00000B6
:10049E00000000000000000000000000000000004E
:1004AE000000000000C0F0B80C07030000808000C0
:1004BE0000000000000000000000000C0E0602000C
:1004CE0000C0C080C1E37F3E0000000003070E089D
:1004DE00000000000000000000000000000000000E
:1004EE0000000000000000000000000000000000FE
:1004FE0000000000000000000000000000000000EE
:10050E0000000000000000000000000000000000DD
:10051E000000000000000080808080808286CECCAB
:10052E00C8404040606060400000000000000000D5
:10053E00000000000000FFFF3F0000000000FFFF72
:10054E0020303010101000000000000000000000ED
:10055E000080E0FE3F070010F0F098080F0F06062F
:10056E000202C2E6FE3C000000000000000406038A
:10057E000100000000000007070602020202060743
:10058E0003010000000000000000000000808080D9
:10059E0000000080F0FC3E070300000000FFFFFF9C
:1005AE000000000000000000071F3E786000000001
:1005BE00000000000000000000000000000000002D
:1005CE000000000000000040C0C0C000000000009D
:1005DE0000000000000000000000C0E0B0980E0710
:1005EE0003898CFCFCFC00000000000000000000F1
:1005FE0000000001FFFF7A3333331B1FFFFF800023
:10060E0000000000000000000000000E0F0F0E069C
:10061E00060703030F0F0F0000000000000000008C
:10062E0000000000000000000000000000000000BC
:10063E00000000000000000000000000000000901C
:10064E00F0F0600000808000000000000040F8FC28
:10065E00FE3E0A0C2C35B7F7FB7B3B1F0D05C7C7BB
:10066E0047020000000001010030B8FCFEFFFFF35E
:10067E0017FFFE1E3E7363E1C0C0000000000000C5
:10068E0002031B1F0F1F3930383F1F0000000000F0
:10069E00000000000000000000000000000000004C
:1006AE00000000000000000000000000000000003C
:1006BE000000000000000000000000808080C0C02C
:1006CE0080000000000000202030F0F060040606DC
:1006DE00F3F3E3C1C1C14FFFFF00000000000000B3
:1006EE0000F8FF7F0C8CC6E6F7FFFF3F1F1C0CFFC8
:1006FE00FFFF00000000001E1F1F0300010101018B
:10070E00103F1F0003070E1D3F3F000000000000BA
:10071E0000000000000000000000000000000000CB
:10072E0000000000808000000000000000000107B3
:10073E001FFEF8E000000000000000F1FFFF0000C7
:10074E00000040F07C3F0F010000E3C1C1C14FFF2C
:10075E00FF0000000000000000000000000000008C
:10076E0000000000000000F8000000000000003350
:10077E000000000000100C02100C0200000000002F
:10078E00000000000040C07840C0780000043F0424
:10079E00043F040000708888FC08300000182020F8
:1007AE00FF211E00F008F0806018000000310C03DD
:1007BE001E211E0000F00888700000001E21232C50
:1007CE001927211000120E0000000000000000008A
:1007DE0000000000000000E0180402000000000706
:1007EE001820400000020418E0000000004020180D
:1007FE0007000000404080F0804040000202010FE0
:10080E000102020000000000E000000000010101F2
:10081E000F010101000000000000000000907000B8
:10082E0000000000000000000000000000010101B7
:10083E000101010000000000000000000030300047
:10084E000000000000000000C0380400006018071F
:10085E000000000000E010080810E000000F10205B
:10086E0020100F0000001010F800000000002020E3
:10087E003F202000007008080808F00000302824EF
:10088E00222130000030080808887000001820214E
:10089E0021221C000000804030F8000000060524D4
:1008AE00243F242400F88888880808000019202096
:1008BE0020110E0000E0108888900000000F11201B
:1008CE0020201F0000180808886818000000003E4D
:1008DE00010000000070880808887000001C2221AA
:1008EE0021221C0000F008080810E000000112226E
:1008FE0022110F00000000C0C000000000000030F8
:10090E00300000000000008000000000000000E049
:10091E0000000000000080402010080000010204CA
:10092E0008102000004040404040400000020202FB
:10093E000202020000081020408000000020100873
:10094E0004020100007048080888700000000030A2
:10095E0037000000C030C828E810E000071827282C
:10096E002F2817000000C038E0000000203C2302B2
:10097E000227382008F8888888700000203F202041
:10098E0020110E00C0300808080838000718202073
:10099E002010080008F808080810E000203F20206A
:1009AE0020100F0008F88888E8081000203F20204B
:1009BE002320180008F88888E8081000203F20003F
:1009CE0003000000C0300808083800000718202077
:1009DE00221E020008F808000008F808203F210136
:1009EE0001213F20000808F8080800000020203FE1
:1009FE002020000000000808F8080800C080808051
:100A0E007F00000008F888C028180800203F200149
:100A1E002638200008F8080000000000203F2020A3
:100A2E002020300008F8F800F8F80800203F013EBA
:100A3E00013F200008F830C00008F808203F2000D1
:100A4E0007183F00E01008080810E0000F102020E3
:100A5E0020100F0008F808080808F000203F2101B8
:100A6E0001010000E01008080810E0000F1028280F
:100A7E0030504F0008F8888888887000203F20008A
:100A8E00030C302000708808080838000038202138
:100A9E0021221C00180808F8080818000000203F42
:100AAE002000000008F808000008F808001F2020A9
:100ABE0020201F000878880000C83808000007387A
:100ACE000E01000008F800F800F8080000033E01CF
:100ADE003E030000081868808068180820302C0338
:100AEE00032C30200838C800C83808000000203F0A
:100AFE002000000010080808C838080020382621F9
:100B0E0020201800000000FE020202000000007FFC
:100B1E0040404000000438C000000000000000010A
:100B2E000638C00000020202FE00000000404040F5
:100B3E007F0000000000040202040000000000001C
:100B4E000000000000000000000000008080808097
:100B5E00808080800002020400000000000000007F
:100B6E000000000000008080800000000019242496
:100B7E00123F200010F0008080000000003F112086
:100B8E0020110E000000008080800000000E112059
:100B9E0020201100000080808090F000001F202097
:100BAE0020103F200000808080800000001F242441
:100BBE0024241700008080E0909020000020203F29
:100BCE00202000000000808080808000006B9494C4
:100BDE009493600010F0008080800000203F210080
:100BEE0000203F2000809898000000000020203F49
:100BFE0020200000000000809898000000C0808037
:100C0E00807F000010F0000080808000203F2406CE
:100C1E0029302000001010F8000000000020203FB6
:100C2E00202000008080808080808000203F200077
:100C3E003F20003F8080008080800000203F210008
:100C4E0000203F200000808080800000001F2020B8
:100C5E0020201F00808000808000000080FF9120F7
:100C6E0020110E000000008080008000000E112078
:100C7E002091FF80808080008080800020203F2196
:100C8E00200001000000808080808000003324243A
:100C9E0024241900008080E0808000000000001FE6
:100CAE00202010008080000000808000001F202087
:100CBE0020103F20808080008080800000030C3058
:100CCE000C0300008080008080008080010E300CBC
:100CDE000738060100808080008080000020310EE1
:100CEE002E312000808080000080808000818678F8
:100CFE001806010000808080808080000021302C4A
:100D0E00222130000000000000FC02020000000062
:100D1E00013E404000000000FF0000000000000007
:100D2E00FF0000000202FC000000000040403E01F7
:100D3E000000000000020102020402000000000098
:040D4E0000000000A1
:061CB9008100108101080A
:041CBF00820200009D
:1021EA0043BA8090FEA8743FF053BA7F75DEFFEFC2
:1021FA0070047F8080027F818FBCD2AD43BC4000D7
:0E220A0000E5BC20E6FB7802E2FE08E2FF22BF
:03002B000220A20E
:1020A200C0E0C0D075D000C000C005C006C007782F
:1020B20002E4F208F253BCDFAFBD18F208EFF2E21D
:1020C2007F0018F2FE08EFF2ADBEEE18F2ED08F254
:0D20D200D007D006D005D000D0D0D0E0322D
:10227400707265737320616E79206B65790A746F6F
:0A22840020636F6E74696E756500CB
:10201D00D2AF43BA8075CAFF75B4FF75B2FF75961E
:10202D00FF7594FFE4F5C9F5B3F5B1F595F5937525
:10203D0092FC75910375B80175B70353BA7F1222DF
:10204D00E2121F8E122259D2B7D2B6D2A1D2A3D28A
:04205D00A40222E7D0
:101EEE0012201D121623783174FFF230A32830A46D
:101EFE002530B72230A11F30B61C7BFF7A227974B1
:101F0E00121E877F207E0312228E1222C47FF47E41
:101F1E000112228E80D5E47831F21222D030A3FD48
:101F2E0030A4FA30B7F730A1F430B6F1121B298085
:011F3E00FBA7
:10228E00EF1FAC0670011E4C600A7D107C93DCFEC5
:04229E00DDFC80ECF7
:0122A2002219
:021F3F00AB05F0
:101F4100EFD394647480948040047E648002AE0771
:101F5100AF06EFC3940A7480948050047E0A800215
:101F6100AE07AF067E007C027D8F121028AD07AC54
:101F71000643BA80EB700AEC90FEF5F0EFA3F08017
:0C1F810008EC90FEF9F0EDA3F053BA7FDD
:011F8D002231
:10215700EF24FE600D14601024027010C200D2013B
:10216700800AD200C2018004C201C200ED7009A238
:102177000092C9A20192B522A20092C8A20192B40C
:012187002235
:101F8E0043BA8090FEECE4F0A3F090FEE87460F0AB
:101F9E0090FEEAF090FEEC7401F0A3F090FEF27465
:101FAE00BFF0A3E4F090FEF574FFF0A3F090FEF9FD
:101FBE00F0A3F090FEB57411F090FEFD7480F090D9
:091FCE00FEE07401F053BA7F2219
:10218800C296C2B0E4FEEEC3940874809480501CDA
:10219800C293EF5480C4131313540124FF9294EF95
:1021A80025E0FF00D29300C2930E80DAD2B0D29617
:0121B8002204
:1021B900C296D2B0E4FEEEC3940874809480501C99
:1021C900C293EF5480C4131313540124FF9294EF64
:1021D90025E0FF00D29300C2930E80DAD2B0D296E6
:0121E90022D3
:1022A300AC07ECC4540F4410FF122188EC540FFF09
:0322B3000221887D
:0722DB00EF24B0FF0221888F
:042061007863EFF2BF
:10206500E408F27864E2FFC3940874809480502CED
:102075001222DB7F021222A3E4FCECC3948074805D
:102085009480500A7863E2FF1221B90C80EC7F023C
:0C2095007E0012228E7864E204F280C704
:0120A100221C
:0D1E1B007869EBF208EAF208E9F208EDF24E
:101E280008E27870F2786EE2131313541FFF18E279
:101E38002FFFE433FE7870E2C39FEE6480F874806D
:101E480098503B786CE2FF1222A37870E2FF1222CE
:101E5800DBE4FC786FE2FFECC39F501B7869E2FB80
:101E68000808E2F92401F218E2FA3400F212100F1D
:0E1E7800FF1221B90C80DC7870E204F280A722
:011E86002239
:0D1DAE007869EBF208EAF208E9F208EDF2BC
:101DBB0008E27870F2786EE2131313541FFF18E2E7
:101DCB002FFFE433FE7870E2C39FEE6480F87480DB
:101DDB0098503C786CE2FF1222A37870E2FF12223B
:101DEB00DBE4FC786FE2FFECC39F501C7869E2FBED
:101DFB000808E2F92401F218E2FA3400F212100F8B
:0F1E0B00F4FF1221B90C80DB7870E204F280A69C
:011E1A0022A5
:101C37007FAE1221887F021221887F101221887FB0
:101C4700401221887FB01221887F811221887FFF6F
:101C57001221887FA11221887FA41221887FA612D2
:101C670021887FC81221887FA81221887F3F1221EF
:101C7700887FD51221887F801221887FD3122188FF
:101C8700E4FF1221887FAD1221887F8B1221887F84
:101C9700DA1221887F121221887FDB1221887F4088
:101CA7001221887FD91221887FF11221887FAF0204
:021CB700218882
:061CC30081040081050010
:10162300C2957F027E0012228ED2950000121C37D3
:10163300E4FF1220617BFF7A00792EE4786DF208D3
:101643007440F2087431F2E4FD121E1B7FF47E0134
:1016530012228EE4FF1220617BFF7A0179B6E478CF
:101663006DF2087440F2087431F2FD121E1B7FF410
:101673007E0112228EE4FF1220617BFF7A03793E02
:10168300786D7401F2087428F208741EF2E4FD12F6
:101693001E1B7BFF7A0379D4786D7401F2087428DA
:1016A300F208741EF2FD121E1B7BFF7A04796A781E
:1016B3006D7401F2087428F208741EF27D3C121E48
:1016C3001B7BFF7A057900786D7401F2087428F2A8
:1016D30008741EF27D5A121E1B7FBC7E0212228EDC
:1016E3007FFF122061E4FF1220617BFF7A05799668
:1016F300786D7401F2087428F208740AF2E4FD129A
:101703001E1B7BFF7A0579C8786D7401F208742873
:10171300F2087418F27D0A121E1B7BFF7A067940C9
:10172300786D7401F2087428F2087418F27D22129D
:101733001E1B7BFF7A0679B8786D7401F208742852
:10174300F2087418F27D3A121E1B7BFF7A07793078
:10175300786D7401F2087428F208740AF27D52124B
:101763001E1B7F207E0312228E7FFF122061E4FF67
:03177300022061F0
:0C22C400E4FF122061E47805F218F22219
:10196F007805E2FD3395E0FCC3ED9410EC648094B0
:10197F00804010E4F27800E2131313541FFE780432
:10198F00E22EF2EF24F8601C248960652475701B29
:10199F007800E2131313541FFF7804E22FF2087438
:1019AF00FFF2804D7805E214F28046EFFD3395E0AB
:1019BF00FCC3ED9420EC648094804035EDC4F85462
:1019CF000FC868FFECC454F048FE74622FF9740519
:1019DF003EFA7BFF7801E2FF7805E28FF0A404FD69
:1019EF0018E2786DF27800E2786EF208EFF2121ECC
:0719FF001B7805E204F2224F
:101A06007805E2FD3395E0FCC3ED9410EC64809418
:101A1600804010E4F27800E2131313541FFE78049A
:101A2600E22EF2EF24F8601C248960652475701B91
:101A36007800E2131313541FFF7804E22FF20874A0
:101A4600FFF2804D7805E214F28046EFFD3395E013
:101A5600FCC3ED9420EC648094804035EDC4F854CA
:101A66000FC868FFECC454F048FE74622FF9740581
:101A76003EFA7BFF7801E2FF7805E28FF0A404FDD1
:101A860018E2786DF27800E2786EF208EFF2121D35
:071A9600AE7805E204F22224
:0718CD007863EEF208EFF270
:1018D400087427F2087410F27865E2FA08E2FB78DB
:1018E40063E2FE08E2FFAD03AC0212103AEF4E7061
:1018F400297863E2FE08E2FFAD03AC0212103A78E5
:1019040063ECF208EDF27D0A7C00AF03AE02121024
:101914003A7865EEF208EFF280BEC37866E294018D
:1019240018E294004044E2FC08E2FD7863E2FE0819
:10193400E2FF12103AEF2430FF12196F7863E2FECF
:1019440008E2FF08E2FA08E2FBFDAC0212103A7862
:1019540063ECF208EDF27D0A7C00AF03AE021210D4
:0A1964003A7865EEF208EFF280B069
:01196E002256
:101E87007866EBF208EAF208E9F27804E2FF7831C3
:101E9700E2B507297866E2FB08E2FA08E2F91210D0
:101EA7000F60437866E2FB0808E2F92401F218E2C2
:101EB700FA3400F212100FFF121A0680D77866E282
:101EC700FB08E2FA08E2F912100F601A7866E2FBE3
:101ED7000808E2F92401F218E2FA3400F212100FAE
:071EE700FF12196F80D722E2
:071CC9008207000081060103
:040006007F4EDFFE4C
:01000A0022D3
:0D22B600007F077E177D69DDFEDEFCDFFA8C
:0122C30022F8
:0522E200C2850222B6D6
:101D3400785C741EF2E47807F208F27806F2D28531
:101D4400120006C28530B2FD758901E4F58AF58C6E
:101D5400D28CD2A9D2A830B210785CE214F2600915
:101D64007F027E0012228E80ED7807E2FC08E2FDFD
:101D7400E4120F557B967A43798B783C120E4AC055
:101D840004C005C006C0077806E2FF7E007C047D1F
:101D94005A121028AC06AD07E4120F55D003D00236
:0A1DA400D001D000120D59020F8E7D
:030003000220DFF9
:1020DF00C0E0C0D075D000C000C005C006C007C2A8
:1020EF00A9C28CAF8C7807E4F208EFF2E27F0018F8
:1020FF00F2FE08EFF2AD8AEE18F2ED08F2C2A8D0A8
:0C210F0007D006D005D000D0D0D0E032C0
:03000B0002223E90
:10223E00C0E0C0D075D000C0007806E204F2758A06
:0B224E0000758C00D000D0D0D0E03232
:102218006C6566742D2D3E000A72696768742D2DF1
:102228003E000A6164635F6C2D2D3E000A616463A1
:062238005F722D2D3E0037
:0C1CD00082090000820B0000820D000061
:10000E00E4FD7F011221577D017F01122157E4FD8E
:0C001E007F64121F3F7D017F64021F3FC2
:10225900E4FDFF121F3F7D01E4FF121F3FE4FD7FF4
:0B226900031221577D017F0302215763
:04211B007863EFF204
:10211F00E408F208F208F27866E2C394057480943A
:10212F008050177863E2FF1221EA7865E22FF218E8
:10213F00E23EF27866E204F280DD7864E2FE08E2C5
:08214F00FF7C007D0502103A3F
:1011F200E4FF12211B785BEEF208EFF27F0112216D
:101202001B785DEEF208EFF27809E2FD08E2780F52
:10121200CDF208EDF2C3785CE29FFF18E29EFE7CFD
:10122200007D0A12103A7809EEF208EFF218E2FE97
:1012320008E2FF780CE22FF218E23EF2780FE2FCAD
:1012420008E2FDC3EF9DFFEE9CFE780DF208EFF27F
:101252007C007D0A121028AA06AB077809E2FE0874
:10126200E2FF7D3C121028EF2BFFEE3AFE0C7D22AE
:1012720012108FC3741E9FFDE49EFCD3ED9400EC0C
:1012820064809480400280047C007D00785FECF2F0
:1012920008EDF2EF241EFDE43EFCD3ED9400EC6475
:1012A2008094804006AE04AF0580047E007F007803
:1012B20061EEF208EFF2785FE2FE08E2FFD3946497
:1012C200EE940040087C007E007F648000785FEE30
:1012D200F208EFF208E2FE08E2FFD39464EE940013
:1012E20040087C007E007F6480007861EEF208EFA7
:1012F200F2785F08E2FFE4FD121F3F786108E2FF27
:101302007D01121F3F1222C47BFF7A227918121E1E
:1013120087785FE2FE08E2FF1218CD7BFF7A22791E
:1013220020121E877861E2FE08E2FF1218CD7BFFD1
:101332007A22792A121E87785BE2FE08E2FF1218EF
:10134200CD7BFF7A227934121E87785DE2FE08E2B5
:0B135200FF1218CD7F017E0002228EEA
:10135D006361722073746172740A006D6F64656CE1
:10136D0020746573740A00706172616D65746572C5
:10137D00206D6F646966790A00756C7472612073F3
:10138D006F756E640A00696E64756374616E636572
:10139D00206164630A00737065656420636F6E7409
:1013AD00726F6C0A006F62737461636C652064699F
:1013BD007374616E6365007374645F735F6C007347
:1013CD0074645F735F7200726F756E642073706505
:1013DD00656400726F756E642074696D6500737459
:1013ED0072696768742074696D65006C6566740058
:1013FD007269676874002D2D3E000A007072657366
:10140D0073206D696420746F206261636B006F627D
:10141D00737461636C652064697374616E63650ACE
:10142D006973203C003E0A707265737320276D69E5
:10143D00642720746F0A72657475726E2062616321
:10144D006B006C6566742720746F2073686F77204E
:10145D006C65667420766F6C746167652C736F2094
:10146D007468652072696768740A6D696420746FA9
:10147D00206261636B006C65667420696E647563D0
:10148D00656420766F6C746167652076616C756537
:10149D002069730A3C00726967687420696E64750F
:1014AD0063656420766F6C746167652076616C7519
:0714BD00652069730A3C0081
:101CDC008131008111328112328F4BFF135D000074
:101CEC00FF13680000FF137400008F3CFF13860085
:101CFC0000FF13930000FF13A300009E13FF13B209
:101D0C000000FF13C40000FF13CC0000FF13D4002D
:101D1C0000FF13E00000FF13EB00008A32FF13F802
:071D2C000000FF13FD0000A1
:081FD7007BFE7A00793C7F03D8
:0D1FDF007861EFF208EBF208EAF208E9F28F
:101FEC00E408F27861E2FF7865E2FEC39F50217845
:101FFC0062E2FB08E2FA08E2F975F005EEA4F5825C
:10200C0085F083121185121E877865E204F280D365
:01201C0022A1
:081BB4007BFE7A0079327F020A
:0D1BBC00785CEFF208EBF208EAF208E9F2BB
:101BC900E408F2785CE2FF7860E2FEC39F50567841
:101BD9005DE2FB08E2FA08E2F975F005EEA4F58288
:101BE90085F083121185121E877BFF7A14790312FF
:101BF9001E877860E275F005A4FF785DE2FB08E2D4
:101C0900FA08E22FF9EA35F0FA9000031210C5FF3D
:101C1900AEF01218CD7BFF7A147907121E8778600F
:0E1C2900E204F2809E7BFF7A147909021E8786
:0D182300785CEFF208EBF208EAF208E9F257
:10183000087414F220A4177831E2FF3395E0FED348
:10184000EF9400EE648094804004E224FEF220A332
:10185000067831E22402F230A10320B63B7831E26F
:10186000A2E713FF3395E0FE7C007D051210287877
:101870005DE2FB08E2FA08E22FF9EA3EFA90000383
:101880001210C545F070047F0180027F007E008F3A
:10189000F0EE90000312114A1222C4785CE2FF08B5
:1018A000E2FB08E2FA08E2F9121FDF7860E2FF14B7
:1018B000F2EF601830A30C30A40930B70630A10352
:0C18C00020B6097F647E0012228E80DFBB
:0118CC0022F9
:0A177600785CEBF208EAF208E9F2F1
:10178000087414F220A4177831E2FF3395E0FED3F9
:10179000EF9400EE648094804004E224FEF220A3E3
:1017A000067831E22402F220A12A7831E2A2E7137E
:1017B000FF3395E0FE7C007D05121028785CE2FB8B
:1017C00008E2FA08E22FF9EA3EFA90000374FFF506
:1017D000F01210FD20B62A7831E2A2E713FF33950C
:1017E000E0FE7C007D05121028785CE2FB08E2FA3E
:1017F00008E22FF9EA3EFA900003E475F0011210B6
:10180000FD785FE2FF14F2EF601830A30C30A409FA
:1018100030B70630A10320B6097F647E0012228E05
:0218200080DF67
:0118220022A3
:0B22D0007BFE7A00794B7F03021FDFCA
:1014C4001222C4E47831F202161C20B70302162259
:1014D40030A30C30A40930B70630A10320B6EB7B4F
:1014E400FE7A00793C7F03121823E4785BF2785B80
:1014F400E2FFC39403748094804003021619EF75CD
:10150400F005A42440F9E3700219E3700302160302
:10151400785BE214602E14607B24026003021603DD
:101524001222C4783174FFF2FB7A14791B121E87DD
:10153400121D341218CD7BFF7A147932121E8720C3
:10154400B7FD80441222C4783174FFF2FB7A147917
:101554004F121E8730B73120A1101222C47BFF7AAC
:10156400147983121E87E4FF801120B6E71222C487
:101574007BFF7A1479A3121E877F011221EA1218C5
:10158400CD7F3E12196F80CC1222C4E47831F2125E
:101594001FD7806B1222C4E47831F27811E2FF780D
:1015A40035E4F208EFF27812E2FF783AE4F208EF59
:1015B400F2121BB4E4FD7F011221577D017F011259
:1015C400215730B73730A30C30A40930B70630A107
:1015D4000320B6EE1222C47BFE7A0079321217760B
:1015E4001222C4121BB4783508E2FFE4FD121F3F37
:1015F400783A08E2FF7D01121F3F80C61222597813
:101604005BE275F005A4243FF8E4F208F2785BE2AB
:0E16140004F20214F21222C4121FD70214CEE6
:0116220022A5
:01002A0022B3
:101B290030A30C30A40930B70630A10320B67B7B63
:101B3900FE7A00794B7F03121823E4785AF2785A17
:101B4900E2FFC39403748094805059EF75F005A4A3
:101B5900244FF9E3700219E36035E47831F2785AD9
:101B6900E2146023146025240270241222C47831FF
:101B790074FFF212000E30B7051211F280F812222A
:101B890059E47831F280081214C4800312002A78CB
:101B99005AE275F005A4244EF8E4F208F2785AE204
:0A1BA90004F2809A1222C41222D026
:011BB300220F
:0122E70022D4
:100D5200020FFAE86480F8E933E83360110460F0C6
:100D6200ED33EC337009E8FCE9FDEAFEEBFF220407
:100D720060DED3EB9FEA9EE99DE8C2E78CF0C2F702
:100D820095F0400CE8CCF8E9CDF9EACEFAEBCFFBCE
:100D9200120FC585D0F05804700320D5B3E8047053
:100DA200075002B2D502100492D5EC0460F7E4CCED
:100DB200C0E0C398F8603B94186008400DD0E0FB97
:100DC200020FDCE4FBFAC9FC8028E830E406E4C93F
:100DD200FBE4CAFCE830E305E4C9CACBFCE85407EB
:100DE2006010F8C3E913F9EA13FAEB13FBEC13FCF6
:100DF200D8F130F52FC3E49CFCEF9BFFEE9AFEED99
:100E020099FDD0E0FBEF4E4D4C701222DB03021035
:100E120001EC2CFCEF33FFEE33FEED33FDED30E75A
:100E2200EB020FDCEF2BFFEE3AFEED39FDD0E0FBDB
:100E320050130BBB0003021004ED13FDEE13FEEF83
:080E420013FFEC13FC020FDCAE
:100E4A00EC4D6011E8497017ED33EC3304600DE4A2
:100E5A00FCFFFEFD22E933E8330470F8020FFA12B0
:100E6A000FC558046009E4CC2481500628500902B1
:100E7A001004284003021001C0E0EB4A7044B98014
:100E8A0006D0E0FB020FF0EF4E701CBD8008EBFFAE
:100E9A00EAFEE9FD80EBE98DF0A4FEE5F0020F33EE
:100EAA00E9CDF9EAFEEBFFEF89F0A4FCE5F0CE8983
:100EBA00F0A42EFFE435F0CD89F0A42DFEE435F040
:100ECA008067EF4E7005BD80D780C3EF8BF0A4AC6E
:100EDA00F0EE8BF0A42CFCE435F0F8EF8AF0A42CA9
:100EEA00E5F038FCE433CB8DF0A42CFCE5F03BF8BC
:100EFA00EE8AF0A42CFCE5F038F8E433CF89F0A4AC
:100F0A002CFCE5F038CF3400CE89F0A42FFFE5F0B1
:100F1A003EFEE433C98DF0A42EFEE5F039CD8AF009
:100F2A00A42FFFE5F03EFEE43DFD33D0E0FB500781
:100F3A000BBB000F021004EC2CFCEF33FFEE33FE68
:060F4A00ED33FD020FDC97
:100F500075F020800E75F010800575F0087D007E1C
:100F6000007F003392D530D503121177EC33401057
:100F7000EF33FFEE33FEED33FDEC33FCD5F0ED2225
:0E0F8000E5F0247EA2D513CC92E7CDCEFF2261
:100F8E00EDD2E7CD33EC3392D524814006E4FFFE5B
:100F9E00FDFC22FCE4CFCECDCC24E0501174FF80BA
:100FAE00EDC3CC13CCCD13CDCE13CECF13CF047057
:070FBE00F030D5DE021177CF
:100FC500E9D2E7C933E833F892D5EDD2E7CD33EC72
:070FD50033FC5002B2D522EB
:100FDC00EC30E7100FBF000C0EBE00080DBD000476
:100FEC000BEB6014A2D5EB13FCED92E7FD2274FF22
:100FFC00FCFDFEFF22E480F8A2D574FF13FC7D807B
:03100C00E480EF8E
:101AA900021EEEE493A3F8E493A34003F68001F247
:101AB90008DFF48029E493A3F85407240CC8C3333E
:101AC900C4540F4420C8834004F456800146F6DF0D
:101AD900E4800B0102040810204080901CB9E47EC8
:101AE900019360BCA3FF543F30E509541FFEE49302
:101AF900A360010ECF54C025E060A840B8E493A3C9
:101B0900FAE493A3F8E493A3C8C582C8CAC583CAF3
:101B1900F0A3C8C582C8CAC583CADFE9DEE780BEAB
:011D330000AF
:10100F00BB010689828A83E0225002E722BBFE02DF
:09101F00E32289828A83E4932212
:10102800EF8DF0A4A8F0CF8CF0A428CE8DF0A42EDC
:02103800FE2296
:10103A00BC000BBE0029EF8DF084FFADF022E4CC9A
:10104A00F875F008EF2FFFEE33FEEC33FCEE9DEC63
:10105A00984005FCEE9DFE0FD5F0E9E4CEFD22EDA9
:10106A00F8F5F0EE8420D21CFEADF075F008EF2FF3
:10107A00FFED33FD4007985006D5F0F222C398FDE4
:05108A000FD5F0EA2281
:10108F00C2D5EC30E709B2D5E4C39DFDE49CFCEE7C
:10109F0030E715B2D5E4C39FFFE49EFE12103AC3AA
:1010AF00E49DFDE49CFC800312103A30D507C3E4A5
:0610BF009FFFE49EFE22EB
:1010C500BB0110E58229F582E5833AF583E0F5F069
:1010D500A3E0225009E92582F886F008E622BBFE46
:1010E5000AE92582F8E2F5F008E222E5832AF5838C
:0810F500E993F5F0A3E9932251
:1010FD00BB010DC58229C582C5833AC5830211B5D1
:10110D005011C58229F808E5F026F618F5F0E582AC
:10111D0036F622BBFE11C58229F808E225F0F5F05E
:10112D00F218E23582F222F8E58229F582E5832A6A
:0D113D00F58374019325F0F5F0E49338225A
:10114A00F8BB0111E58229F582E5833AF583E8F0D7
:10115A00E5F0A3F0225009E92582C8F608A6F02294
:0D116A00BBFE09E92582C8F2E5F008F2227B
:0E117700C3E49FFFE49EFEE49DFDE49CFC2289
:10118500BB010DE58229F582E5833AF5830211D489
:101195005007E92582F80211CBBBFE07E92582F845
:1011A5000211DDE58229F582E5833AF5830211E630
:1011B500C5F0F8A3E028F0C5F0F8E58215827002C5
:0611C5001583E038F02262
:0911CB00E6FB08E6FA08E6F92249
:0911D400E0FBA3E0FAA3E0F9221C
:0911DD00E2FB08E2FA08E2F92243
:0C11E600E493FB740193FA740293F92265
:00000001FF
