:03000000021B2BB5
:0C1B2B00787FE4F6D8FD758120021B7263
:1000A600000000000000000000000000000000004A
:1000B600000000000000000000000000000000003A
:1000C600000000000000000000000000000000002A
:1000D600000000000000000000000000000020708A
:1000E60070F0E0E0C000000000000000000000002A
:1000F60000000000000000000000000000000000FA
:100106000000000000000000C0E0E0E0E0E0E0F0F9
:10011600F038383C1C9CCCCCC0C00000000000006D
:1001260000000000000000000000000000000000C9
:100136000000000000000000000000C0F0FFFFFF0C
:10014600FFF3F8FCFCFF7F3F3B3900C0C0C0C0E0B6
:1001560070783C1E1F0F0F070700808080C0C0C04C
:10016600C000000000000000181C1E1F0F8F87C76C
:10017600E3E3FFFFFFFFFFBE9E1E0E0E0007FFFF1D
:10018600FFFFF83C1C1E0E0E1FFFFFFFFF030301BF
:100196000100000000000000F8FCFEDE8F0F0707DC
:1001A600030301FFFFFFFFFF0103070F1F1EFCFFF5
:1001B600FFFF0F000000000000001FFFFFFFFE0012
:1001C600000000000000000000000103030102021D
:1001D600020606060F0F0F0F0300000000000303C0
:1001E6000301000000000000000000FEFFFFFF0FFB
:1001F60000000000000000000000000000000000F9
:1002060000000000000000000000000000000000E8
:1002160000000000000000000000000003030301CE
:1002260000000000000000000000000000000000C8
:1002360000000000000000000000000000000000B8
:1002460000000000000000000000000000000000A8
:100256000000000000000000000000000000000098
:100266000000000000000000000000000000000088
:100276000000000000000000000000000000000078
:100286000000000000000000000000000000000068
:1002960000000000003070F0F0F0E0000000000008
:1002A6000000000080FEFEFEFC3870E0E0C08080AA
:1002B6008080000000000000000000000000000038
:1002C60000000000000080FFFFFFFFFF00000000AD
:1002D6000000000000FFFFFFFFFFF0F0783D3F1F2A
:1002E6000F0F0F07000000000000000000000000D4
:1002F600000C0C0E0E0F0F87FFFFFFFF0000000023
:1003060000303C7C3E3EFFFFFFFF0701000000007F
:100316000000000000008080800000000000000057
:100326000000000000038FFFFFFFFF7F7F0C00002F
:1003360000000000000000FFFFFFFFF88000000043
:10034600000000000080C0FFFFFFF8000000000072
:100356000000001E1E1E1F0F070301000000000004
:1003660000000000000000000001030707070F0F50
:100376000E0E0F0F0F0F0F0F0707070100000000EB
:100386000000000000000000000000000000000067
:100396000000000000000000000000000000000057
:1003A6000000000000000000000000000000000047
:1003B6000000000000000000000000000000000037
:1003C6000000000000000000000000000000000027
:1003D6000000000000000000000008F8F000808027
:1003E6008080000000000000000000000000000007
:1003F6000000000080E070381C0F070301000000B9
:1004060000000000000000000000000000000000E6
:1004160000000F1F183030302020202030303010E0
:100426001818000000000000000000000000000096
:1004360000000000000000000000000000000000B6
:1004460000000000000000000000000000000000A6
:100456000000000000000000000000000000000096
:10046600000000000000000000000000020202027E
:100476000202020202020200000000000000000068
:10048600000000000000040404040404040606023C
:100496000206060404040CF8F00000000000000048
:1004A600000000000000000000000000000080C006
:1004B600E070381C0F030000000000000000000080
:1004C600000000000000000000030303010100001B
:1004D6000000000000000000000000000000000016
:1004E6000000000000000000000000000000000006
:1004F60000000000000000000000000000000000F6
:10050600000000101010181818181830F0E000003D
:1005160000000000000000000000000000000000D5
:100526000000000000C0F0B80C0703000080800047
:1005360000000000000000000000000C0E06020093
:1005460000C0C080C1E37F3E0000000003070E0824
:100556000000000000000000000000000000000095
:100566000000000000000000000000000000000085
:100576000000000000000000000000000000000075
:100586000000000000000000000000000000000065
:100596000000000000000080808080808286CECC33
:1005A600C84040406060604000000000000000005D
:1005B600000000000000FFFF3F0000000000FFFFFA
:1005C6002030301010100000000000000000000075
:1005D6000080E0FE3F070010F0F098080F0F0606B7
:1005E6000202C2E6FE3C0000000000000004060312
:1005F60001000000000000070706020202020607CB
:100606000301000000000000000000000080808060
:1006160000000080F0FC3E070300000000FFFFFF23
:100626000000000000000000071F3E786000000088
:1006360000000000000000000000000000000000B4
:100646000000000000000040C0C0C0000000000024
:1006560000000000000000000000C0E0B0980E0797
:1006660003898CFCFCFC0000000000000000000078
:1006760000000001FFFF7A3333331B1FFFFF8000AA
:1006860000000000000000000000000E0F0F0E0624
:10069600060703030F0F0F00000000000000000014
:1006A6000000000000000000000000000000000044
:1006B60000000000000000000000000000000090A4
:1006C600F0F0600000808000000000000040F8FCB0
:1006D600FE3E0A0C2C35B7F7FB7B3B1F0D05C7C743
:1006E60047020000000001010030B8FCFEFFFFF3E6
:1006F60017FFFE1E3E7363E1C0C00000000000004D
:1007060002031B1F0F1F3930383F1F000000000077
:1007160000000000000000000000000000000000D3
:1007260000000000000000000000000000000000C3
:100736000000000000000000000000808080C0C0B3
:1007460080000000000000202030F0F06004060663
:10075600F3F3E3C1C1C14FFFFF000000000000003A
:1007660000F8FF7F0C8CC6E6F7FFFF3F1F1C0CFF4F
:10077600FFFF00000000001E1F1F03000101010112
:10078600103F1F0003070E1D3F3F00000000000042
:100796000000000000000000000000000000000053
:1007A600000000008080000000000000000001073B
:1007B6001FFEF8E000000000000000F1FFFF00004F
:1007C600000040F07C3F0F010000E3C1C1C14FFFB4
:1007D600FF00000000000000000000000000000014
:1007E60000000000000000F80000000000000033D8
:1007F6000000000000100C02100C020000000000B7
:10080600000000000040C07840C0780000043F04AB
:10081600043F040000708888FC083000001820207F
:10082600FF211E00F008F0806018000000310C0364
:100836001E211E0000F00888700000001E21232CD7
:100846001927211000120E00000000000000000011
:1008560000000000000000E018040200000000078D
:100866001820400000020418E00000000040201894
:1008760007000000404080F0804040000202010F67
:100886000102020000000000E0000000000101017A
:100896000F01010100000000000000000090700040
:1008A600000000000000000000000000000101013F
:1008B60001010100000000000000000000303000CF
:1008C6000000000000000000C038040000601807A7
:1008D6000000000000E010080810E000000F1020E3
:1008E60020100F0000001010F8000000000020206B
:1008F6003F202000007008080808F0000030282477
:1009060022213000003008080888700000182021D5
:1009160021221C000000804030F80000000605245B
:10092600243F242400F8888888080800001920201D
:1009360020110E0000E0108888900000000F1120A2
:1009460020201F0000180808886818000000003ED4
:10095600010000000070880808887000001C222131
:1009660021221C0000F008080810E00000011222F5
:1009760022110F00000000C0C0000000000000307F
:10098600300000000000008000000000000000E0D1
:100996000000000000008040201008000001020452
:1009A6000810200000404040404040000002020283
:1009B60002020200000810204080000000201008FB
:1009C600040201000070480808887000000000302A
:1009D60037000000C030C828E810E00007182728B4
:1009E6002F2817000000C038E0000000203C23023A
:1009F6000227382008F8888888700000203F2020C9
:100A060020110E00C03008080808380007182020FA
:100A16002010080008F808080810E000203F2020F1
:100A260020100F0008F88888E8081000203F2020D2
:100A36002320180008F88888E8081000203F2000C6
:100A460003000000C03008080838000007182020FE
:100A5600221E020008F808000008F808203F2101BD
:100A660001213F20000808F8080800000020203F68
:100A76002020000000000808F8080800C0808080D8
:100A86007F00000008F888C028180800203F2001D1
:100A96002638200008F8080000000000203F20202B
:100AA6002020300008F8F800F8F80800203F013E42
:100AB600013F200008F830C00008F808203F200059
:100AC60007183F00E01008080810E0000F1020206B
:100AD60020100F0008F808080808F000203F210140
:100AE60001010000E01008080810E0000F10282897
:100AF60030504F0008F8888888887000203F200012
:100B0600030C3020007088080808380000382021BF
:100B160021221C00180808F8080818000000203FC9
:100B26002000000008F808000008F808001F202030
:100B360020201F000878880000C838080000073801
:100B46000E01000008F800F800F8080000033E0156
:100B56003E030000081868808068180820302C03BF
:100B6600032C30200838C800C83808000000203F91
:100B76002000000010080808C83808002038262180
:100B860020201800000000FE020202000000007F84
:100B960040404000000438C0000000000000000192
:100BA6000638C00000020202FE000000004040407D
:100BB6007F000000000004020204000000000000A4
:100BC600000000000000000000000000808080801F
:100BD6008080808000020204000000000000000007
:100BE600000000000000808080000000001924241E
:100BF600123F200010F0008080000000003F11200E
:100C060020110E000000008080800000000E1120E0
:100C160020201100000080808090F000001F20201E
:100C260020103F200000808080800000001F2424C8
:100C360024241700008080E0909020000020203FB0
:100C4600202000000000808080808000006B94944B
:100C56009493600010F0008080800000203F210007
:100C660000203F2000809898000000000020203FD0
:100C760020200000000000809898000000C08080BE
:100C8600807F000010F0000080808000203F240656
:100C960029302000001010F8000000000020203F3E
:100CA600202000008080808080808000203F2000FF
:100CB6003F20003F8080008080800000203F210090
:100CC60000203F200000808080800000001F202040
:100CD60020201F00808000808000000080FF91207F
:100CE60020110E000000008080008000000E112000
:100CF6002091FF80808080008080800020203F211E
:100D060020000100000080808080800000332424C1
:100D160024241900008080E0808000000000001F6D
:100D2600202010008080000000808000001F20200E
:100D360020103F20808080008080800000030C30DF
:100D46000C0300008080008080008080010E300C43
:100D56000738060100808080008080000020310E68
:100D66002E3120008080800000808080008186787F
:100D76001806010000808080808080000021302CD1
:100D8600222130000000000000FC020200000000EA
:100D9600013E404000000000FF000000000000008F
:100DA600FF0000000202FC000000000040403E017F
:100DB6000000000000020102020402000000000020
:040DC6000000000029
:061BB7008100108101080D
:041BBD0082020000A0
:1022120043BA8090FEA8743FF053BA7F75DEFFEF99
:1022220070047F8080027F818FBCD2AD43BC4000AE
:0E22320000E5BC20E6FB7802E2FE08E2FF2297
:03002B000220CEE2
:1020CE00C0E0C0D075D000C000C005C006C0077803
:1020DE0002E4F208F253BCDFAFBD18F208EFF2E2F1
:1020EE007F0018F2FE08EFF2ADBEEE18F2ED08F228
:0D20FE00D007D006D005D000D0D0D0E03201
:10228300707265737320616E79206B65790A746F60
:0A22930020636F6E74696E756500BC
:10204900D2AF43BA8075CAFF75B4FF7596FF759410
:10205900FFE4F5C9F5B3F595F59375B2FBF5B175DF
:1020690092FC75910375B80175B70353BA7F1222B3
:10207900D3121FBA120006D2B7D2B6D2A1D2A3D2B6
:04208900A402002984
:101E8000122049121621783374FFF230A32830A4AF
:101E90002530B72230A11F30B61C7BFF7A22798310
:101EA000121E197F207E0312229D1222E07FF47EF3
:101EB0000112229D80D5E47833F21222EC30A3FD8A
:101EC00030A4FA30B7F730A1F430B6F1121A9B8083
:011ED000FB16
:10229D00EF1FAC0670011E4C600A7D107C93DCFEB6
:0422AD00DDFC80ECE8
:0122B100220A
:021ED100AB055F
:101ED300EFD394647480948040047E648002AE07E0
:101EE300AF06EFC3940A7480948050047E0A800284
:101EF300AE07AF067E007C027D8F120FA8AD07AC44
:101F03000643BA80EB700AEC90FEF5F0EFA3F08085
:0C1F130008EC90FEF9F0EDA3F053BA7F4B
:011F1F00229F
:1021B200EF14600D24FE600F047010C200D2018083
:1021C2000AD200C2018004C201C200ED7009A2005D
:0F21D20092C9A20192B522A20092C8A20192B4B2
:0121E10022DB
:101FBA0043BA8090FEECE4F0A3F090FEE87460F07F
:101FCA0090FEEAF090FEEC7401F0A3F090FEF27439
:101FDA00BFF0A3E4F090FEF574FFF0A3F090FEF9D1
:101FEA00F0A3F090FEB57411F090FEFD7480F090AD
:091FFA00FEE07401F053BA7F22ED
:10006600C296C2B0E4FEEEC3940874809480501C1D
:10007600C293EF5480C4131313540124FF9294EFD8
:1000860025E0FF00D29300C2930E80DAD2B0D2965A
:010096002247
:10218100C296D2B0E4FEEEC3940874809480501CD1
:10219100C293EF5480C4131313540124FF9294EF9C
:1021A10025E0FF00D29300C2930E80DAD2B0D2961E
:0121B100220B
:1022B200AC07ECC4540F4410FF120066EC540FFF3D
:0322C200020066B1
:0722F700EF24B0FF020066B6
:04208D00786AEFF28C
:10209100E408F2786BE2FFC3940874809480502CBA
:1020A1001222F77F021222B2E4FCECC39480748006
:1020B1009480500A786AE2FF1221810C80EC7F0241
:0C20C1007E0012229D786BE204F280C7C2
:0120CD0022F0
:0D1DAD00786EEBF208EAF208E9F208EDF2B8
:101DBA0008E27875F27873E2131313541FFF18E2DE
:101DCA002FFFE433FE7875E2C39FEE6480F87480D7
:101DDA0098503B7871E2FF1222B27875E2FF122224
:101DEA00F7E4FC7874E2FFECC39F501B786EE2FBC9
:101DFA000808E2F92401F218E2FA3400F2120F8F0D
:0E1E0A00FF1221810C80DC7875E204F280A7C3
:011E180022A7
:0D1D4000786DEBF208EAF208E9F208EDF226
:101D4D0008E27874F27872E2131313541FFF18E24D
:101D5D002FFFE433FE7874E2C39FEE6480F8748045
:101D6D0098503C7870E2FF1222B27874E2FF122292
:101D7D00F7E4FC7873E2FFECC39F501C786DE2FB37
:101D8D000808E2F92401F218E2FA3400F2120F8F7A
:0F1D9D00F4FF1221810C80DB7874E204F280A63F
:011DAC002214
:101CBE007FAE1200667F021200667F101200667FF2
:101CCE00401200667FB01200667F811200667FFFB1
:101CDE001200667FA11200667FA41200667FA61214
:101CEE0000667FC81200667FA81200667F3F120052
:101CFE00667FD51200667F801200667FD312006663
:101D0E00E4FF1200667FAD1200667F8B1200667FC5
:101D1E00DA1200667F121200667FDB1200667F40C9
:101D2E001200667FD91200667FF11200667FAF0245
:021D3E0000663D
:061BC10081040081050013
:10162100C2957F027E0012229DD2950000121CBE3F
:10163100E4FF12208D7BFF7A0079A6E47872F2082C
:101641007440F2087431F2E4FD121DAD7FF47E01A5
:1016510012229DE4FF12208D7BFF7A02792EE4781D
:1016610072F2087440F2087431F2FD121DAD7FF47C
:101671007E0112229DE4FF12208D7BFF7A0379B651
:1016810078727401F2087428F208741EF2E4FD12F3
:101691001DAD7BFF7A04794C78727401F2087428CD
:1016A100F208741EF2FD121DAD7BFF7A0479E27817
:1016B100727401F2087428F208741EF27D3C121D46
:1016C100AD7BFF7A05797878727401F2087428F29B
:1016D10008741EF27D5A121DAD7FBC7E0212229D3E
:1016E1007FFF12208DE4FF12208D7BFF7A06790E99
:1016F10078727401F2087428F208740AF2E4FD1297
:101701001DAD7BFF7A06794078727401F208742866
:10171100F2087418F27D0A121DAD7BFF7A0679B8C2
:1017210078727401F2087428F2087418F27D22129A
:101731001DAD7BFF7A07793078727401F208742845
:10174100F2087418F27D3A121DAD7BFF7A0779A871
:1017510078727401F2087428F208740AF27D521248
:101761001DAD7F207E0312229D7FFF12208DE4FF9D
:0317710002208DC6
:0C22E000E4FF12208DE47805F218F222D1
:10196D007805E2FD3395E0FCC3ED9410EC648094B2
:10197D00804010E4F27800E2131313541FFE780434
:10198D00E22EF2EF24F8601C248960652475701B2B
:10199D007800E2131313541FFF7804E22FF208743A
:1019AD00FFF2804D7805E214F28046EFFD3395E0AD
:1019BD00FCC3ED9420EC648094804035EDC4F85464
:1019CD000FC868FFECC454F048FE74DA2FF97405A3
:1019DD003EFA7BFF7801E2FF7805E28FF0A404FD6B
:1019ED0018E27872F27800E27873F208EFF2121DC5
:0719FD00AD7805E204F222BF
:101A04007805E2FD3395E0FCC3ED9410EC6480941A
:101A1400804010E4F27800E2131313541FFE78049C
:101A2400E22EF2EF24F8601C248960652475701B93
:101A34007800E2131313541FFF7804E22FF20874A2
:101A4400FFF2804D7805E214F28046EFFD3395E015
:101A5400FCC3ED9420EC648094804035EDC4F854CC
:101A64000FC868FFECC454F048FE74DA2FF974050B
:101A74003EFA7BFF7801E2FF7805E28FF0A404FDD3
:101A840018E27871F27800E27872F208EFF2121D2F
:071A9400407805E204F22294
:0718CB00786AEEF208EFF26B
:1018D200087427F2087410F2786CE2FA08E2FB78D6
:1018E2006AE2FE08E2FFAD03AC02120FBAEF4E70DD
:1018F20029786AE2FE08E2FFAD03AC02120FBA7861
:101902006AECF208EDF27D0A7C00AF03AE02120F20
:10191200BA786CEEF208EFF280BEC3786DE2940101
:1019220018E294004044E2FC08E2FD786AE2FE0814
:10193200E2FF120FBAEF2430FF12196D786AE2FE4D
:1019420008E2FF08E2FA08E2FBFDAC02120FBA78E5
:101952006AECF208EDF27D0A7C00AF03AE02120FD0
:0A196200BA786CEEF208EFF280B0E4
:01196C002258
:101E1900786AEBF208EAF208E9F27804E2FF78332B
:101E2900E2B50729786AE2FB08E2FA08E2F9120F3B
:101E39008F6043786AE2FB0808E2F92401F218E2AC
:101E4900FA3400F2120F8FFF121A0480D7786AE26F
:101E5900FB08E2FA08E2F9120F8F601A786AE2FBCE
:101E69000808E2F92401F218E2FA3400F2120F8F9D
:071E7900FF12196D80D72252
:041BC7008206000092
:04009E007F4EDFFEB4
:0100A200223B
:0D22C500007F077E177D69DDFEDEFCDFFA7D
:0122D20022E9
:0D22D300C285D2B2D2881222C575890922B7
:101F6E0078767464F2E47806F208F2D28512009E56
:101F7E00C28530B2FDE4F58AF58CD28CD2A8C28926
:101F8E0030B2107876E214F260097F027E001222DF
:101F9E009D80ED7806E2FC08E2FDE4120ED57B96FC
:0C1FAE007A43798B783C120DCA020F0EAA
:0300030002214790
:10214700C0E0C0D075D000C000C005C006C007C23F
:102157008CAF8C7806E4F208EFF2E27F0018F2FE0B
:1021670008EFF2AD8AEE18F2ED08F2C2A8D007D058
:0A21770006D005D000D0D0D0E03231
:102240006C6566742D2D3E000A72696768742D2DC9
:102250003E000A6164635F6C2D2D3E000A61646379
:062260005F722D2D3E000F
:101BCB00C10282080000820A0000820C0000811012
:051BDB00008211000072
:10002E00E4FD7F021221B27D017F021221B2E4FDB6
:10003E007F64121ED17D017F64121ED1E4F5D1754D
:10004E00D5F075D4D843D10875D3A075D21543D148
:05005E008043AF6022A9
:10000600E4FDFF121ED17D01E4FF121ED1E4FD7F47
:10001600031221B27D017F031221B253D1F753D1CE
:020026007F2237
:04210B00786AEFF20D
:10210F00E408F208F208F2786DE2C3940574809443
:10211F00805017786AE2FF122212786CE22FF218C1
:10212F00E23EF2786DE204F280DD786BE2FE08E2C7
:08213F00FF7C007D05020FBAD0
:10117200E4FF12210B7862EEF208EFF27F011221F6
:101182000B7864EEF208EFF218E2FE08E2FF7862F2
:10119200E2FA08E2FB2FFFEA3EFE7C007D0A120F14
:1011A200BA7860EEF208EFF27808E2FF08E2780E11
:1011B200CFF208EFF27864E2FE08E2FFC3EB9FFF92
:1011C200EA9EFE7C007D0A120FBA7808EEF208EF62
:1011D200F218E2FE08E2FF780BE22FF218E23EF28A
:1011E200780EE2FC08E2FDC3EF9DFFEE9CFE780C58
:1011F200F208EFF27C007DC8120FA8AA06AB0778AE
:1012020008E2FE08E2FF7D32120FA8EF2BFFEE3A52
:10121200FE7860E2FC08E2FD12100F785EEEF20842
:10122200EFF2C3745A9FFFE49EFED3EF9400EE6484
:10123200809480400280047E007F007866EEF2088F
:10124200EFF2785FE2245AFF18E23400FED3EF9403
:1012520000EE64809480400280047E007F00786803
:10126200EEF208EFF27866E2FE08E2FFD39464EE53
:10127200940040087C007E007F6480007866EEF275
:1012820008EFF208E2FE08E2FFD39464EE94004015
:10129200087C007E007F6480007868EEF208EFF23E
:1012A200786608E2FFE4FD121ED1786808E2FF7D4D
:1012B20001121ED11222E07BFF7A227940121E19FE
:1012C2007866E2FE08E2FF1218CB7BFF7A227948A9
:1012D200121E197868E2FE08E2FF1218CB7BFF7A31
:1012E200227952121E197862E2FE08E2FF1218CB2E
:1012F2007BFF7A22795C121E197864E2FE08E2FF13
:101302001218CB3002527810E2FF04F2C3EF940AB3
:10131200748094805018785EE2FE08E2FF7C007DC3
:101322000A12100F7812E22FF218E23EF222E4784B
:1013320011F208F2C2027810F2C3940A7480948007
:10134200500D7812E294F618E26480947F5004C241
:08135200008002D20012230406
:01135A002270
:03009B000222FE40
:0622FE0053EFFDD2023295
:0300A300021F2019
:101F2000C0E0C0F0C083C082C0D075D000C000C087
:101F300001C002C003C004C005C006C00753EFFBC8
:101F4000121F6ED3EF9428EE940050077F011222E7
:101F500066C2B7D007D006D005D004D003D002D0D7
:0E1F600001D000D0D0D082D083D0F0D0E032BB
:10135B006361722073746172740A006D6F64656CE3
:10136B0020746573740A00706172616D65746572C7
:10137B00206D6F646966790A00756C7472612073F5
:10138B006F756E640A00696E64756374616E636574
:10139B00206164630A00737065656420636F6E740B
:1013AB00726F6C0A006F62737461636C65206469A1
:1013BB007374616E6365007374645F735F6C007349
:1013CB0074645F735F7200726F756E642073706507
:1013DB00656400726F756E642074696D650073745B
:1013EB0072696768742074696D65006C656674005A
:1013FB007269676874002D2D3E000A007072657368
:10140B0073206D696420746F206261636B006F627F
:10141B00737461636C652064697374616E63650AD0
:10142B006973203C003E0A707265737320276D69E7
:10143B00642720746F0A72657475726E2062616323
:10144B006B006C6566742720746F2073686F772050
:10145B006C65667420766F6C746167652C736F2096
:10146B007468652072696768740A6D696420746FAB
:10147B00206261636B006C65667420696E647563D2
:10148B00656420766F6C746167652076616C756539
:10149B002069730A3C00726967687420696E647511
:1014AB0063656420766F6C746167652076616C751B
:0714BB00652069730A3C0083
:101BE0008133008113328114328F4DFF135B00006B
:101BF000FF13660000FF137200008F3EFF13840086
:101C000000FF13910000FF13A100009E15FF13B009
:101C10000000FF13C20000FF13CA0000FF13D20030
:101C200000FF13DE0000FF13E900008A34FF13F603
:071C30000000FF13FB0000A0
:082003007BFE7A00793E7F03A9
:0D200B007864EFF208EBF208EAF208E9F25F
:10201800E408F27864E2FF7868E2FEC39F50217812
:1020280065E2FB08E2FA08E2F975F005EEA4F5822C
:1020380085F083121105121E197868E204F280D324
:012048002275
:081C3B007BFE7A0079347F0280
:0D1C4300785FEFF208EBF208EAF208E9F230
:101C5000E408F2785FE2FF7863E2FEC39F505678B3
:101C600060E2FB08E2FA08E2F975F005EEA4F582FD
:101C700085F083121105121E197BFF7A1479011267
:101C80001E197863E275F005A4FF7860E2FB08E2B4
:101C9000FA08E22FF9EA35F0FA900003121045FF36
:101CA000AEF01218CB7BFF7A147905121E197863F7
:0E1CB000E204F2809E7BFF7A147907021E196F
:0D182100785FEFF208EBF208EAF208E9F256
:10182E00087414F220A4177833E2FF3395E0FED348
:10183E00EF9400EE648094804004E224FEF220A334
:10184E00067833E22402F230A10320B63B7833E26D
:10185E00A2E713FF3395E0FE7C007D05120FA878FA
:10186E0060E2FB08E2FA08E22FF9EA3EFA90000382
:10187E0012104545F070047F0180027F007E008FBC
:10188E00F0EE9000031210CA1222E0785FE2FF0819
:10189E00E2FB08E2FA08E2F912200B7863E2FF1489
:1018AE00F2EF601830A30C30A40930B70630A10354
:0C18BE0020B6097F647E0012229D80DFAE
:0118CA0022FB
:0A177400785FEBF208EAF208E9F2F0
:10177E00087414F220A4177833E2FF3395E0FED3F9
:10178E00EF9400EE648094804004E224FEF220A3E5
:10179E00067833E22402F220A12A7833E2A2E7137C
:1017AE00FF3395E0FE7C007D05120FA8785FE2FB0B
:1017BE0008E2FA08E22FF9EA3EFA90000374FFF508
:1017CE00F012107D20B62A7833E2A2E713FF33958C
:1017DE00E0FE7C007D05120FA8785FE2FB08E2FABE
:1017EE0008E22FF9EA3EFA900003E475F0011210B8
:1017FE007D7862E2FF14F2EF601830A30C30A4097A
:10180E0030B70630A10320B6097F647E0012229DF8
:02181E0080DF69
:0118200022A5
:0B22EC007BFE7A00794D7F0302200B7F
:1014C2001222E0E47833F202161A20B70302162041
:1014D20030A30C30A40930B70630A10320B6EB7B51
:1014E200FE7A00793E7F03121821E4785EF2785E7C
:1014F200E2FFC39403748094804003021617EF75D1
:10150200F005A42442F9E3700219E3700302160104
:10151200785EE214602E14607B24026003021601DE
:101522001222E0783374FFF2FB7A147919121E1931
:10153200121F6E1218CB7BFF7A147930121E1920FB
:10154200B7FD80441222E0783374FFF2FB7A1479FB
:101552004D121E1930B73120A1101222E07BFF7A02
:10156200147981121E19E4FF801120B6E71222E0DD
:101572007BFF7A1479A1121E197F0112221212180E
:10158200CB7F3E12196D80CC1222E0E47833F21246
:101592002003806B1222E0E47833F27813E2FF78C2
:1015A20037E4F208EFF27814E2FF783CE4F208EF55
:1015B200F2121C3BE4FD7F021221B27D017F021276
:1015C20021B230B73730A30C30A40930B70630A1AE
:1015D2000320B6EE1222E07BFE7A007934121774F1
:1015E2001222E0121C3B783708E2FFE4FD121ED102
:1015F200783C08E2FF7D01121ED180C612000678F7
:101602005EE275F005A42441F8E4F208F2785EE2A5
:0E16120004F20214F01222E01220030214CCA3
:0116200022A7
:0100280022B5
:101A9B0030A30F30A40C30B70930A10630B60302C7
:101AAB001B2A7BFE7A00794D7F03121821E4785DA7
:101ABB00F2785DE2FFC3940374809480505BEF7502
:101ACB00F005A42451F9E3700219E36037E478338D
:101ADB00F2785DE21460251460272402702612222E
:101AEB00E0783374FFF212002E30B70512117280BA
:101AFB00F8D2B7120006E47833F280081214C280D1
:101B0B0003120028785DE275F005A42450F8E4F286
:0F1B1B0008F2785DE204F280981222E01222ECC8
:011B2A002298
:0100290022B4
:031C3700815C00CD
:05230400A200928422FA
:10226600C284538EF375D7B075D63C438E1043AFF8
:0D2276000453EFFEEF75F014A4785CF22223
:030063000221E295
:1021E200C0E0C0D075D000C000C00753EFFE785CDD
:1021F200E2FF14F2EF600B75D7B075D63C438E1038
:102202008005538EEFD284D007D000D0D0D0E032F8
:100DCA00EC4D6011E8497017ED33EC3304600DE423
:100DDA00FCFFFEFD22E933E8330470F8020F7A12B1
:100DEA000F4558046009E4CC2481500628500902B2
:100DFA000F84284003020F81C0E0EB4A7044B98097
:100E0A0006D0E0FB020F70EF4E701CBD8008EBFFAE
:100E1A00EAFEE9FD80EBE98DF0A4FEE5F0020EB3EF
:100E2A00E9CDF9EAFEEBFFEF89F0A4FCE5F0CE8903
:100E3A00F0A42EFFE435F0CD89F0A42DFEE435F0C0
:100E4A008067EF4E7005BD80D780C3EF8BF0A4ACEE
:100E5A00F0EE8BF0A42CFCE435F0F8EF8AF0A42C29
:100E6A00E5F038FCE433CB8DF0A42CFCE5F03BF83C
:100E7A00EE8AF0A42CFCE5F038F8E433CF89F0A42C
:100E8A002CFCE5F038CF3400CE89F0A42FFFE5F032
:100E9A003EFEE433C98DF0A42EFEE5F039CD8AF08A
:100EAA00A42FFFE5F03EFEE43DFD33D0E0FB500702
:100EBA000BBB000F020F84EC2CFCEF33FFEE33FE6A
:060ECA00ED33FD020F5C98
:100ED00075F020800E75F010800575F0087D007E9D
:100EE000007F003392D530D5031210F7EC33401059
:100EF000EF33FFEE33FEED33FDEC33FCD5F0ED22A6
:0E0F0000E5F0247EA2D513CC92E7CDCEFF22E1
:100F0E00EDD2E7CD33EC3392D524814006E4FFFEDB
:100F1E00FDFC22FCE4CFCECDCC24E0501174FF803A
:100F2E00EDC3CC13CCCD13CDCE13CECF13CF0470D7
:070F3E00F030D5DE0210F7D0
:100F4500E9D2E7C933E833F892D5EDD2E7CD33ECF2
:070F550033FC5002B2D5226B
:100F5C00EC30E7100FBF000C0EBE00080DBD0004F6
:100F6C000BEB6014A2D5EB13FCED92E7FD2274FFA2
:100F7C00FCFDFEFF22E480F8A2D574FF13FC7D80FB
:030F8C00E480EF0F
:101B3700021E80E493A3F8E493A34003F68001F226
:101B470008DFF48029E493A3F85407240CC8C333AF
:101B5700C4540F4420C8834004F456800146F6DF7E
:101B6700E4800B0102040810204080901BB7E47E3C
:101B7700019360BCA3FF543F30E509541FFEE49373
:101B8700A360010ECF54C025E060A840B8E493A33A
:101B9700FAE493A3F8E493A3C8C582C8CAC583CA65
:101BA700F0A3C8C582C8CAC583CADFE9DEE780BE1D
:011C3A0000A9
:100F8F00BB010689828A83E0225002E722BBFE0260
:090F9F00E32289828A83E4932293
:100FA800EF8DF0A4A8F0CF8CF0A428CE8DF0A42E5D
:020FB800FE2217
:100FBA00BC000BBE0029EF8DF084FFADF022E4CC1B
:100FCA00F875F008EF2FFFEE33FEEC33FCEE9DECE4
:100FDA00984005FCEE9DFE0FD5F0E9E4CEFD22ED2A
:100FEA00F8F5F0EE8420D21CFEADF075F008EF2F74
:100FFA00FFED33FD4007985006D5F0F222C398FD65
:05100A000FD5F0EA2201
:10100F00C2D5EC30E709B2D5E4C39DFDE49CFCEEFC
:10101F0030E715B2D5E4C39FFFE49EFE120FBAC3AB
:10102F00E49DFDE49CFC8003120FBA30D507C3E4A6
:06103F009FFFE49EFE226B
:10104500BB0110E58229F582E5833AF583E0F5F0E9
:10105500A3E0225009E92582F886F008E622BBFEC6
:101065000AE92582F8E2F5F008E222E5832AF5830C
:08107500E993F5F0A3E99322D1
:10107D00BB010DC58229C582C5833AC583021135D1
:10108D005011C58229F808E5F026F618F5F0E5822D
:10109D0036F622BBFE11C58229F808E225F0F5F0DF
:1010AD00F218E23582F222F8E58229F582E5832AEB
:0D10BD00F58374019325F0F5F0E4933822DB
:1010CA00F8BB0111E58229F582E5833AF583E8F058
:1010DA00E5F0A3F0225009E92582C8F608A6F02215
:0D10EA00BBFE09E92582C8F2E5F008F222FC
:0E10F700C3E49FFFE49EFEE49DFDE49CFC220A
:10110500BB010DE58229F582E5833AF58302115489
:101115005007E92582F802114BBBFE07E92582F845
:1011250002115DE58229F582E5833AF583021166B0
:10113500C5F0F8A3E028F0C5F0F8E5821582700245
:061145001583E038F022E2
:09114B00E6FB08E6FA08E6F922C9
:09115400E0FBA3E0FAA3E0F9229C
:09115D00E2FB08E2FA08E2F922C3
:0C116600E493FB740193FA740293F922E5
:00000001FF
